:020000040800F2
:100000000050002035190008311800083318000886
:1000100035180008371800083918000800000000DB
:100020000000000000000000000000003B18000875
:100030003D180008000000003F18000841180008A3
:100040007D1900087D1900087D1900087D19000838
:100050007D1900087D1900087D1900084518000861
:100060008D180008931800087D1900087D190008F4
:100070007D1900087D1900087D1900087D19000808
:100080007D1900087D190008991800087D190008DD
:100090007D1900087D1900087D1900087D190008E8
:1000A0007D1900087D1900087D1900087D190008D8
:1000B0007D1900087D1900087D1900087D190008C8
:1000C0007D1900087D1900087D1900087D190008B8
:1000D0007D190008A51800087D1900087D19000881
:1000E0007D1900087D1900087D1900080000000036
:1000F0000000000000000000000000000000000000
:0C01000000000000000000005FF808F1A3
:10010C0010B5054C237833B9044B13B10448AFF345
:10011C0000800123237010BD0C00002000000000A3
:10012C00D819000808B5034B1BB103490348AFF3BA
:10013C00008008BD0000000010000020D819000845
:10014C0038B50E4B054618784FF47A73B3FBF0F3C1
:10015C000B4A1068B0FBF3F000F0CCFA044658B927
:10016C000F2D09D8024629464FF0FF3000F082FAD5
:10017C00044B20461D6038BD012038BD0000002016
:10018C000800002004000020074A08B5136803206B
:10019C0043F01003136000F05BFA0020FFF7D0FF70
:1001AC0001F0A4FA002008BD00200240034A044BD1
:1001BC0011681B780B441360704700BF3800002097
:1001CC0000000020014B1868704700BF3800002069
:1001DC000368D86C70477047036810B55A680446BA
:1001EC00900627D51A68910724D5A26AD2065EBF5D
:1001FC00A26A42F40072A2629A6802F46022B2F51A
:10020C00602F10D1E26872B95A6822F020025A604D
:10021C00A36A23F48073A362A36ADB045EBFA36AA0
:10022C0043F00103A362204601F0FAF96FF01202C9
:10023C0023681A6023685A68100630D51A6851076B
:10024C002DD5A26AD2065EBFA26A42F40052A26207
:10025C009A6802F4E042B2F5E04F0AD05A685005B1
:10026C0016D49A6802F46022B2F5602F10D1E268BD
:10027C0072B95A6822F080025A60A36A23F4805340
:10028C00A362A36AD9055EBFA36A43F00103A3620C
:10029C00204600F0DBF96FF00C0223681A6023682B
:1002AC005A6852060DD51B68DB070AD5A36A20468F
:1002BC0043F48033A362FFF78EFF6FF001022368D3
:1002CC001A6010BD002373B5019390F82430012BF4
:1002DC0074D001234D6880F82430062D02684FEA53
:1002EC0085030C6825D82B441F25566B053B9D4078
:1002FC0026EA050504FA03F32B435363092C4FEA52
:10030C0044038D682FD907262344D1681E3B9E4099
:10031C0021EA060105FA03F30B43D360A4F11003A1
:10032C00012B2BD90023002280F82420184602B080
:10033C0070BD0C2D0BD82B441F25166B233B9D40F9
:10034C0026EA050504FA03F32B431363D6E72B4483
:10035C001F25D66A413B9D4026EA050504FA03F3A6
:10036C002B43D362CAE70726116923449E4021EA36
:10037C00060105FA03F30B431361CFE7104B9A42C6
:10038C0016D193681B02CDD49368102C43F4000350
:10039C009360C7D10B4B0C4A1B68B3FBF2F20A23D8
:1003AC0053430193019B002BBCD0019B013BF8E70D
:1003BC00836A43F0200383620123B4E70223B5E789
:1003CC00002401400800002040420F00002373B5B8
:1003DC000193036804469A68D20702D5002002B044
:1003EC0070BD9A6842F001029A60124B124A1B6867
:1003FC00B3FBF2F30193019BC3B9FFF7E3FE06468F
:10040C0023689D6815F00105E8D1FFF7DBFE801B22
:10041C000228F5D9A36A84F8245043F01003A36290
:10042C00E36A012043F00103E362D8E7019B013B3F
:10043C00E0E700BF0800002040420F0090F8243095
:10044C0010B5012B044658D0012380F82430FFF757
:10045C00BDFF00284DD1A36A294A23F4706323F011
:10046C00010343F48073A3622368934204D12549AA
:10047C004A6812F4702F32D1A26A22F48012A2625E
:10048C005A68520541BFA26A22F4405242F480528B
:10049C00A262A26A12F480521CBFE26A22F0060227
:1004AC00E262002284F824206FF002021A605A687B
:1004BC0042F020025A609A6802F46022B2F5602F72
:1004CC0013D10F4A934205D1A2F58062526812F4FF
:1004DC00702F0AD19A6842F4A0029A6010BDA26AE9
:1004EC0042F48012A2624A68CBE79A6842F4801206
:1004FC00F3E7002384F8243010BD022010BD00BFA8
:10050C00002801400024014038B5036804469A686D
:10051C00D20701D4002038BD9A6822F001029A60FB
:10052C00FFF750FE054623689B68DB07F2D5FFF703
:10053C0049FE401B0228F6D9A36A012043F01003A0
:10054C00A362E36A43F00103E36238BD70B504466D
:10055C00002871D0836A23B9C36280F8243001F07B
:10056C00E7F82046FFF7D0FFA36A13F0100FA36A39
:10057C0064D1002862D1E16923F48853626823F0C6
:10058C00020343F002030A43A168A362E368B1F5D6
:10059C00807F42EA430238D0012914BF06464FF44B
:1005AC0080766569012D07D1002B30D1A369013B01
:1005BC0046EA433545F400662368B1F5807F5D68F3
:1005CC0025F4694545EA06055D609E681D4D05EA02
:1005DC00060545EA02059D6001D0012920D121695B
:1005EC0001390905DD6A25F470052943D96299683A
:1005FC00154B0B409A4215D10023E362A36A23F0FA
:10060C00030343F00103A36270BD0E46C9E7A36A5E
:10061C0043F02003A362E36A43F00103E362CBE7F8
:10062C000021DFE7A36A23F0120343F01003A36257
:10063C00E36A43F00103E362012070BD43F0100351
:10064C00A362F9E7FDF7E1FFFE0E1FFF7047000004
:10065C00074A0002D36800F4E06023F4E0631B0453
:10066C001B0C43F0BF6343F400330343D360704768
:10067C0000ED00E0174B30B5DC68C4F30224C4F184
:10068C000703251D042B28BF0423062D4FF001055D
:10069C0098BF002405FA03F303F1FF3388BF033C32
:1006AC001940A14005FA04F4013C2240002842EA1A
:1006BC0001024FEA0212AFBF00F16040064B00F09E
:1006CC000F00D2B2A5BFD2B200F561401A5480F827
:1006DC00002330BD00ED00E014ED00E001234209E1
:1006EC0000F01F0003FA00F0014B43F822007047A2
:1006FC0000E100E00138B0F1807F0AD2F021064B16
:10070C00064A586082F823100020072298601A606D
:10071C0070470120704700BF10E000E000ED00E0E2
:10072C0090F8213010B5022B03D0042383630120F1
:10073C0010BD03681A6822F00E021A601A6822F0C3
:10074C0001021A60184A93421FD0143293421ED0F1
:10075C00143293421DD0143293421DD01432934262
:10076C001DD0143293420CBF4FF480134FF08073A2
:10077C000E4A00245360012380F82130436B80F82B
:10078C0020407BB19847204610BD0123F0E7102391
:10079C00EEE74FF48073EBE74FF48053E8E74FF448
:1007AC008033E5E7184610BD080002400000024007
:1007BC002DE9F74F00221646654BDFF8A4E1DFF870
:1007CC00A4C14FF001080C6808FA06F808EA040402
:1007DC00A0457FD14D68122D00F0AF8000F28880CB
:1007EC00022D00F0A7807CD8002D00F08E80012D0A
:1007FC0000F09E804FF00F09FF2C93BF824606F14C
:10080C008045083DD0F800B092BFB500D0F804B0D8
:10081C00AD0009FA05F82BEA080802FA05F588BFBD
:10082C0000F1040A48EA0505CAF80050D1F804A002
:10083C001AF0805F4ED0474D464FAD6926F0030845
:10084C0045F00105BD61BD6908F1804805F0010561
:10085C00019508F5803806F0030B019D4FEA8B0BD0
:10086C00D8F8085009FA0BF925EA09093A4DA842BB
:10087C0068D005F58065A84266D005F58065A8426C
:10088C0064D005F58065A8420CBF0325042505FA44
:10089C000BF545EA0905C8F808501D681AF4803FA5
:1008AC0014BF2543A5431D605D681AF4003F14BFB7
:1008BC002543A5435D609D681AF4801F14BF254332
:1008CC00A5439D60DD681AF4001F14BF2C4325EA74
:1008DC000404DC600136102E7FF473AF03B0BDE866
:1008EC00F08F032D22D0112D84D1CA68043281E7F8
:1008FC001A4FBD4209D012D8DFF86C904D4504D088
:10090C0009F580394D457FF475AF8A68C2B1012A6B
:10091C000CBFC0F81080C0F8148008226AE7754537
:10092C00F3D06545F1D0DFF84490EBE7002261E7A6
:10093C00CA685FE7CA6808325CE7CA680C3259E7D4
:10094C00042257E70025A2E70125A0E702259EE730
:10095C00000401400010024000080140000021107A
:10096C0000003110000032100000111000002210A5
:10097C008368194214BF0120002070470AB101613D
:10098C0070470904FBE7704708B5044B59690142ED
:10099C0002D05861FFF7F7FF08BD00BF000401400B
:1009AC0003682DE9F341DB07054610D42B689F073C
:1009BC005ED42B68190700F195802B685A0700F15B
:1009CC00BF80EA69002A40F02D81002014E0904C91
:1009DC00636803F00C03042B07D0636803F00C036B
:1009EC00082B0CD16368DE0309D523689C03DDD585
:1009FC006B68002BDAD1012002B0BDE8F0816B6886
:100A0C00B3F5803F10D1236843F480332360FFF7A4
:100A1C00D9FB064623689803C8D4FFF7D3FB801B89
:100A2C006428F7D90320E7E79BB9236823F48033C4
:100A3C002360236823F480232360FFF7C3FB06465F
:100A4C0023689903B2D5FFF7BDFB801B6428F7D947
:100A5C00E8E7B3F5A02F236803D143F48023236088
:100A6C00D1E723F480332360236823F48023CDE77C
:100A7C00674C636813F00C0F07D0636803F00C032A
:100A8C00082B10D16368DA030DD423689B0702D5B9
:100A9C002B69012BAFD123686A6923F0F80343EA71
:100AAC00C203236085E72A695A4B6AB101221A6096
:100ABC00FFF788FB064623689F07ECD4FFF782FB01
:100ACC00801B0228F7D9ADE71A60FFF77BFB0646BF
:100ADC00236898077FF56DAFFFF774FB801B022826
:100AEC00F6D99FE7AA694A4C4B4BDAB101221A603E
:100AFC00FFF768FB0646636A9B070DD54FF4FA5265
:100B0C00464B1B68B3FBF2F3019300BF019B5A1ECB
:100B1C000192002BF9D150E7FFF754FB801B022800
:100B2C00E9D97FE71A60FFF74DFB0646636A9F071A
:100B3C007FF543AFFFF746FB801B0228F6D971E720
:100B4C00334CE369D80024D40127E36943F0805384
:100B5C00E361E36903F080530093009B304E3368EC
:100B6C00D90518D5EB68012B26D1236A43F0010374
:100B7C002362FFF727FB41F288368046236A9B07E6
:100B8C003FD5002F3FF41DAFE36923F08053E361A1
:100B9C0017E70027E2E7336843F480733360FFF70D
:100BAC0011FB80463368DA05DCD4FFF70BFBA0EBB6
:100BBC0008006428F6D935E7ABB9236A41F28838C6
:100BCC0023F001032362236A23F004032362FFF75B
:100BDC00F9FA0646236A9807D3D5FFF7F3FA801B78
:100BEC004045F7D91EE7052B236A03D143F00403D4
:100BFC002362BAE723F001032362236A23F0040380
:100C0C00B6E7FFF7DFFAA0EB0800B042B6D909E768
:100C1C0000100240000042428004424208000020C2
:100C2C0000700040224C636803F00C03082B3FF467
:100C3C00E2AE00231F4E022A33602BD1FFF7C2FA1B
:100C4C000746236899011FD42B6AB3F5803F05D161
:100C5C006268A96822F400320A436260696A6268B9
:100C6C000B4322F474121343636001233360FFF7C8
:100C7C00A9FA054623689A013FF5A7AEFFF7A2FA39
:100C8C00401B0228F6D9CDE6FFF79CFAC01B0228C0
:100C9C00D7D9C7E6FFF796FA054623689B017FF57F
:100CAC0094AEFFF78FFA401B0228F6D9BAE600BFC4
:100CBC00001002406000424230B5194B87B002ACC4
:100CCC0003F11005224618685968083303C2AB4279
:100CDC001446F7D101238DF80430022311498DF805
:100CEC0005304B6803F00C02082A17D1C3F383427A
:100CFC0006A80244DB0312F8102C0CD54B680A48EA
:100D0C00C3F34043504306AA134413F8143CB0FBFE
:100D1C00F3F007B030BD05485043FAE70248F8E756
:100D2C00F01900080010024000127A0000093D0082
:100D3C00544A2DE9F0411368054603F007038B4232
:100D4C000E462AD329688C0734D4CA0747D44D4A97
:100D5C00136803F007039E42C0F082802A684A4C55
:100D6C0012F0040F40F08780130706D563682A69D8
:100D7C0023F4605343EAC2036360FFF79DFF63688B
:100D8C00424AC3F30313D35CD840414B1860002094
:100D9C00FFF7D6F90020BDE8F081136823F00703B4
:100DAC000B431360136803F007039942CAD0012068
:100DBC00BDE8F081344B11F0040F1EBF5A6842F4A9
:100DCC00E0625A60080742BF5A6842F460525A60A7
:100DDC005A68A86822F0F00202435A60B5E76A68C4
:100DEC00294C012A23681CD113F4003FDFD063681F
:100DFC0041F2883823F0030313436360FFF7E2F9F1
:100E0C006B680746012B14D1636803F00C03042BA9
:100E1C009DD0FFF7D7F9C01B4045F5D90320BDE89D
:100E2C00F081022A02D113F0007FDFE713F0020FEA
:100E3C00DCE7022B0FD1636803F00C03082B86D080
:100E4C00FFF7C0F9C01B4045F5D9E7E7FFF7BAF942
:100E5C00C01B4045E2D8636813F00C0FF6D176E75F
:100E6C00136823F0070333431360136803F007037D
:100E7C009E429CD172E76368E96823F4E0630B43FC
:100E8C00636071E70020024000100240221A000843
:100E9C0008000020044B054A5B68C3F30223D35CB3
:100EAC00034A1068D840704700100240321A0008FC
:100EBC0008000020044B054A5B68C3F3C223D35CD3
:100ECC00034A1068D840704700100240321A0008DC
:100EDC000800002003682DE9F341D907054620D509
:100EEC00354CE369DA0032D40127E36943F08053CF
:100EFC00E361E36903F080530193019B2F4E336848
:100F0C00DB0526D5236A13F4407336D1236A6A684D
:100F1C0023F44073134323621FB1E36923F080531E
:100F2C00E3612868830706D5234AA968536823F42C
:100F3C0040430B43536010F010001BD01E4AE9686D
:100F4C005368002023F480030B43536012E0002706
:100F5C00D4E7336843F480733360FFF733F980468A
:100F6C003368D805CED4FFF72DF9A0EB0800642820
:100F7C00F6D9032002B0BDE8F0816A6802F4407231
:100F8C009342C3D001200E4A236A1060002023F440
:100F9C00407110602162D907B8D5FFF713F941F2FF
:100FAC0088380646236A9A07B0D4FFF70BF9801BE2
:100FBC004045F7D9DDE700BF00100240007000404B
:100FCC00400442420368DA6822F49072DA605A698B
:100FDC0022F001025A61202380F83A307047000059
:100FEC002DE9F0470568C2682B69016923F4405369
:100FFC0013432B618368EA680B43416922F4B052B6
:10100C0022F00C020B431343EB606B69826923F4EF
:10101C00407313436B61404B81469D424FF0190462
:10102C0046D1FFF747FF04FB00F3D9F804604FF0FB
:10103C006408B600B3FBF6F3B3FBF8F31E01FFF73D
:10104C0039FF6043D9F804309B00B0FBF3F7FFF78E
:10105C0031FF6043D9F804309B00B0FBF3F3B3FBD2
:10106C00F8F308FB13731B013233B3FBF8F303F0F3
:10107C00F007FFF71FFF6043D9F804209200B0FB84
:10108C00F2FAFFF717FF6043D9F804309B00B0FB6E
:10109C00F3F3B3FBF8F308FB13A31B013233B3FBDD
:1010AC00F8F303F00F033B433344AB60BDE8F08728
:1010BC00FFF7F0FE04FB00F3D9F804604FF064086E
:1010CC00B600B3FBF6F3B3FBF8F31E01FFF7E2FE39
:1010DC006043D9F804309B00B0FBF3F7FFF7DAFE5E
:1010EC006043D9F804309B00B0FBF3F3B3FBF8F387
:1010FC0008FB13731B013233B3FBF8F303F0F00757
:10110C00FFF7C8FE6043D9F804209200B0FBF2FA56
:10111C00FFF7C0FEB7E700BF0038014010B504462A
:10112C0040B390F8393003F0FF021BB980F8382037
:10113C0000F034FB2423226884F83930D36820462D
:10114C0023F40053D360FFF74BFF236800201A6988
:10115C0022F490421A615A6922F02A025A61DA6822
:10116C0042F40052DA602023E06384F8393084F8CA
:10117C003A3010BD012010BD7047704790F83A30DE
:10118C0010B5222B36D183680169B3F5805F0268F4
:10119C00836A23D15268E9B9C2F3080223F8022BFF
:1011AC008362C48D013CA4B2C4858CB90368DA682F
:1011BC0022F02002DA60DA6822F48072DA605A696E
:1011CC0022F001025A61202380F83A30FFF7D5FF54
:1011DC00002010BDD2B223F8012BE1E721B9591C34
:1011EC00526881621A70DCE75268591C816202F005
:1011FC007F02F7E7022010BD70470000036870B54E
:10120C001A6804461607D9685D6907D196065AD53F
:10121C008D0658D5BDE87040FFF7B0BF15F001053D
:10122C0002D111F4907F4ED0D30705D5CE0542BF25
:10123C00E36B43F00103E363500704D51DB1E36B8B
:10124C0043F00203E363930704D51DB1E36B43F052
:10125C000403E363160704D51DB1E36B43F00803E5
:10126C00E363E36B002B66D0950604D5880602D5A4
:10127C002046FFF783FF236820465D69E26B110768
:10128C0002D415F040051AD0FFF79CFE23685A696A
:10129C00520610D55A69606B22F040025A6150B167
:1012AC00254B4363FFF73CFA002844D0606BBDE844
:1012BC007040436B18472046FFF79EFF70BDFFF749
:1012CC009BFFE56370BD160627D50D0625D594F852
:1012DC003920212A2FD1A268B2F5805F226A17D15A
:1012EC001188C1F308015960216979B9023222626F
:1012FC00E28C013A92B2E284EAB9DA6822F0800216
:10130C00DA60DA6842F04002DA6070BD0132EEE772
:10131C00511C216212785A60EAE750060BD54A0636
:10132C0009D5DA68204622F04002DA60202384F8DE
:10133C003930FFF721FF70BD4913000808B50023B1
:10134C00406AC385C384FFF757FF08BD282210B538
:10135C0094B00DEB0200002100F030FB14220021B0
:10136C000DEB020000F02AFB0021102201A800F076
:10137C0025FB4FF48033022401220B9312934FF47C
:10138C00E0130AA80A920E9213931194FFF708FB2C
:10139C000F234FF4806205930023214605A8079381
:1013AC00089209930694FFF7C3FC4FF4004301A87D
:1013BC0001940393FFF78EFD14B010BD2DE9F04F8F
:1013CC008BB0FEF7E1FEFFF7C1FF1022002106A84B
:1013DC0000F0F4FA884B4FF261619A69874842F049
:1013EC0020029A619A69002402F020020392039A67
:1013FC009A69012542F004029A619A69022602F068
:10140C0004020492049A9A69DFF80CA242F00802D2
:10141C009A619B69012203F008030593059BFFF772
:10142C00ADFA0E230693764B06A9764807930894DB
:10143C00FFF7BEF94FF2616306A970480693079552
:10144C0009960894FFF7B4F906A96C480696079418
:10145C000894FFF7ADF96C4B5046CAF800304FF4C6
:10146C006023CAF81050CAF81C30CAF80840CAF8F1
:10147C000C40CAF81440CAF8044006940794089427
:10148C00FFF764F806A95046079506940894FEF7F2
:10149C0019FF4FF416535D485D4A40F2FF1580E882
:1014AC000C000C23FF262746A146A346A046436109
:1014BC008460C46004618461C461FFF72FFE22461E
:1014CC0021460720FFF7D6F80720FFF707F9224639
:1014DC0021460920FFF7CEF80920FFF7FFF8224636
:1014EC0021460820FFF7C6F80820FFF7F7F800F0B0
:1014FC00E5F8CDF804A0DFF824A100F0E3F9012809
:10150C0005D1002000F0CEF90198FEF797FF00F00E
:10151C00D9F902281FD13F4B0020B3F9008040F6C7
:10152C00E44303FB08F340F6FF7893FBF8F34FF426
:10153C007A78B3FBF8F708FB17334FF06408B3FB6A
:10154C00F8F908FB19334FF00A08B3FBF8FB08FB5A
:10155C001B3800F0A7F9FEF735FE001B0528CCD987
:10156C00FEF730FE9AF80030032B0BD8DFE803F0BF
:10157C0034251302022340468AF8003000F066F846
:10158C0008250646FEF71EFE35432DB204462846B6
:10159C0000F068F8B1E701238AF80030BBF1000FC6
:1015AC0003D1B9F1000F00D12FB1584600F04EF81D
:1015BC0004250646E6E71020F8E700238AF80030F9
:1015CC00B9F1000F00D12FB1484600F03FF80225C9
:1015DC000646D7E71020F8E703238AF8003037B126
:1015EC00384600F033F8C0F30E060125CAE7102088
:1015FC0000F02CF80646F8E700100240000C014001
:10160C000000211000080140002401406C00002063
:10161C00003801402A0000203C0000202800002057
:10162C0008B50268064B9A4209D10648FEF7D0FD70
:10163C00054B18800220BDE8084000F033B908BD06
:10164C00002401403C0000202A00002010289ABFF2
:10165C00024B33F910000248704700BF001A000813
:10166C0000BFFFFF70B506460F24134D46FA04F277
:10167C0012F0010218BF01224FF480612846FFF7D7
:10168C007DF901224FF400710B48FFF777F9002226
:10169C004FF400710848FFF771F914F1FF34E5D2EB
:1016AC00012240210448FFF769F9BDE8704000228F
:1016BC0040210148FFF762B9000C014010B50A4CFB
:1016CC00002220464FF48061FFF758F92046002293
:1016DC004FF40071FFF752F92046BDE8104000228C
:1016EC004021FFF74BB900BF000C01400E4B82B0FC
:1016FC009A6942F001029A619A6902F00102009221
:10170C00009ADA6942F08052DA61DB69074A03F029
:10171C0080530193019B536823F0E06343F0007303
:10172C00536002B0704700BF00100240000001403F
:10173C0010B5044686B01022002102A800F03EF934
:10174C002268144B9A4223D103F56C439A6902A97F
:10175C0042F400729A619A690F4802F40072009286
:10176C00009A9A6942F004029A619B6903F004039F
:10177C000193019B0123029303230393FFF718F8B2
:10178C00002212201146FEF775FF1220FEF7A6FF6D
:10179C0006B010BD002401400008014010B50446FD
:1017AC0086B01022002102A800F008F922681B4B19
:1017BC009A4230D103F558439A6902A942F4804207
:1017CC009A619A69164802F480420092009A9A69CA
:1017DC00002442F004029A619B6903F00403019314
:1017EC00019B4FF40073029302230393032305938D
:1017FC00FEF7DEFF4FF4806302A9094802930394BD
:10180C000494FEF7D5FF252022462146FEF732FF31
:10181C002520FEF763FF06B010BD00BF0038014065
:10182C00000801407047FEE7FEE7FEE7FEE7704761
:10183C0070477047FEF7BABC10B5FEF7C3FC0D4CF1
:10184C002368C01AFA280FD9FEF7BCFC02212060CD
:10185C000948FFF78DF838B9084B1A6801321A603D
:10186C001A68022A88BF18600220BDE81040FFF7F2
:10187C008BB800BF30000020000801402C00002075
:10188C000420FFF781B80820FFF77EB80148FEF767
:10189C00A3BC00BF3C0000200148FFF7AFBC00BF59
:1018AC006C00002072B60228054B03DD02221A6080
:1018BC0062B67047002801DA0022F8E71860F7E7F3
:1018CC002C00002072B6034B1A68034B1A6062B6E8
:1018DC00186870472C000020340000200F4B1A6849
:1018EC0042F001021A6059680D4A0A405A601A689F
:1018FC0022F0847222F480321A601A6822F4802258
:10190C001A605A6822F4FE025A604FF41F029A6061
:10191C004FF00062034B9A60704700BF001002400A
:10192C000000FFF800ED00E0002103E00B4B5B58DA
:10193C00435004310A480B4B42189A42F6D30A4AD8
:10194C0002E0002342F8043B084B9A42F9D3FFF71C
:10195C00C5FF00F00FF8FFF731FD7047441A00087F
:10196C00000000200C0000200C000020AC00002027
:10197C00FEE7000070B500250C4E0D4CA41BA41006
:10198C00A54209D100F022F800250A4E0A4CA41BEE
:10199C00A410A54205D170BD56F8253098470135E5
:1019AC00EEE756F8253098470135F2E73C1A000867
:1019BC003C1A00083C1A0008401A0008034602446E
:1019CC00934200D1704703F8011BF9E7F8B500BF4B
:1019DC00F8BC08BC9E467047F8B500BFF8BC08BC04
:0419EC009E4670475C
:1019F00002030405060708090A0B0C0D0E0F101050
:101A000000C000F900A400B000990092008200F824
:101A1000008000900088008300C600A10086008E30
:101A200000FF0000000000000000010203040607A0
:0C1A30000809000000000102030400008F
:041A3C00310100086C
:041A40000D0100088C
:0C1A4400010000001000000000A24A0495
:0400000508001935A1
:00000001FF
